:040000001AEF1FF0E4
:103E2A001200158E158C158A1200176A166A156A01
:103E3A00000EF86E000199EF1FF0179E410EAD6E4D
:103E4A00540EAD6EAECF01F0AECF02F001504F0A64
:103E5A00D8A404D002504B0AD8B402D0168E12004D
:103E6A00178E1200016E000E166E0150016E000EC2
:103E7A00176E0150016E010E186E0150949A9498B3
:103E8A0094969388949C948E938C94849482948030
:103E9A00939E938A1200410EAD6E540EAD6E2B0E98
:103EAA00AD6E420EAD6E410EAD6E550EAD6E440E48
:103EBA00AD6E340EAD6E410EAD6E540EAD6E2B0E60
:103ECA00AD6E4E0EAD6E410EAD6E4D0EAD6E450E23
:103EDA00AD6E6B0EAD6E610EAD6E720EAD6E720E84
:103EEA00AD6E690EAD6E720EAD6E650EAD6E6D0E77
:103EFA00AD6E6F0EAD6E740EAD6E650EAD6E410E8B
:103F0A00AD6E540EAD6E2B0EAD6E500EAD6E490EEB
:103F1A00AD6E4E0EAD6E310EAD6E320EAD6E330E0F
:103F2A00AD6E340EAD6E120037EC1FF050EC1FF080
:103F3A0022EC1FF015EC1FF055D016EC1FF01550AF
:103F4A00D8B403D0036E020E14D0AECF04F0AECFB5
:103F5A0005F0AECF06F00450430AD8A443D005506A
:103F6A004D0AD8A43FD00650440AD8A43BD0036EC9
:103F7A00030E186E035036D015AE06D0036E310EFE
:103F8A00146E0350159E0FD015AC06D0036E320E78
:103F9A00146E0350159C07D015AA05D0036E330E74
:103FAA00146E0350159A430EAD6E4D0EAD6E440E4F
:103FBA00AD6E530EAD6E570EAD6E540EAD6E530E02
:103FCA00AD6E14C0ADFF1566D7D70CD0440EAD6EDA
:103FDA00420EAD6E470EAD6E450EAD6E520EAD6E13
:103FEA00520EAD6E1850010AD8B4A7D7030AD8B436
:063FFA00EAD7010AEBD733
:020000040020DA
:08000000FFFFFFFFFFFFFFFF00
:020000040030CA
:0E00000000271F1FFF8885FF03C003E0034099
:00000001FF
